{
  "address": "0x92E380Fc66F0AE3a7209abb7e59CBEC908B698FC",
  "abi": [
    {
      "anonymous": false,
      "inputs": [
        {
          "indexed": true,
          "internalType": "address",
          "name": "owner",
          "type": "address"
        },
        {
          "indexed": true,
          "internalType": "uint64",
          "name": "item_id",
          "type": "uint64"
        }
      ],
      "name": "ListedItem",
      "type": "event"
    },
    {
      "inputs": [
        {
          "internalType": "uint64",
          "name": "_itemId",
          "type": "uint64"
        }
      ],
      "name": "getItemById",
      "outputs": [
        {
          "components": [
            {
              "internalType": "string",
              "name": "content",
              "type": "string"
            },
            {
              "internalType": "bytes6",
              "name": "bgColor",
              "type": "bytes6"
            },
            {
              "internalType": "bytes6",
              "name": "textColor",
              "type": "bytes6"
            },
            {
              "internalType": "address",
              "name": "author",
              "type": "address"
            },
            {
              "internalType": "address",
              "name": "owner",
              "type": "address"
            }
          ],
          "internalType": "struct Jeshe",
          "name": "",
          "type": "tuple"
        }
      ],
      "stateMutability": "view",
      "type": "function"
    },
    {
      "inputs": [
        {
          "internalType": "address",
          "name": "_owner",
          "type": "address"
        }
      ],
      "name": "getItemsByOwner",
      "outputs": [
        {
          "internalType": "uint64[]",
          "name": "",
          "type": "uint64[]"
        }
      ],
      "stateMutability": "view",
      "type": "function"
    },
    {
      "inputs": [
        {
          "internalType": "string",
          "name": "_content",
          "type": "string"
        },
        {
          "internalType": "bytes6",
          "name": "_bgColor",
          "type": "bytes6"
        },
        {
          "internalType": "bytes6",
          "name": "_textColor",
          "type": "bytes6"
        }
      ],
      "name": "listItem",
      "outputs": [],
      "stateMutability": "nonpayable",
      "type": "function"
    },
    {
      "inputs": [],
      "name": "totalItems",
      "outputs": [
        {
          "internalType": "uint64",
          "name": "",
          "type": "uint64"
        }
      ],
      "stateMutability": "view",
      "type": "function"
    }
  ],
  "transactionHash": "0x5d012f2e5745a0544bcb13146cb0f1627d155c19dd1e1d7af89b72979b4ac799",
  "args": [],
  "numDeployments": 1,
  "solcInputHash": "677dc4b7dda0a1c7c6abe29438aca84e",
  "bytecode": "0x608060405234801561001057600080fd5b50610dfb806100206000396000f3fe608060405234801561001057600080fd5b506004361061004c5760003560e01c80632799276d146100515780632c67a8e51461006f5780639adf11a11461009f578063e9567c73146100cf575b600080fd5b6100596100eb565b604051610066919061089b565b60405180910390f35b6100896004803603810190610084919061091e565b610108565b6040516100969190610a09565b60405180910390f35b6100b960048036038101906100b49190610a57565b6101d3565b6040516100c69190610bdd565b60405180910390f35b6100e960048036038101906100e49190610c90565b6103f4565b005b60008060009054906101000a900467ffffffffffffffff16905090565b6060600260008373ffffffffffffffffffffffffffffffffffffffff1673ffffffffffffffffffffffffffffffffffffffff1681526020019081526020016000208054806020026020016040519081016040528092919081815260200182805480156101c757602002820191906000526020600020906000905b82829054906101000a900467ffffffffffffffff1667ffffffffffffffff16815260200190600801906020826007010492830192600103820291508084116101825790505b50505050509050919050565b6101db610740565b600160008367ffffffffffffffff1667ffffffffffffffff1681526020019081526020016000206040518060a001604052908160008201805461021d90610d33565b80601f016020809104026020016040519081016040528092919081815260200182805461024990610d33565b80156102965780601f1061026b57610100808354040283529160200191610296565b820191906000526020600020905b81548152906001019060200180831161027957829003601f168201915b505050505081526020016001820160009054906101000a900460d01b79ffffffffffffffffffffffffffffffffffffffffffffffffffff191679ffffffffffffffffffffffffffffffffffffffffffffffffffff191681526020016001820160069054906101000a900460d01b79ffffffffffffffffffffffffffffffffffffffffffffffffffff191679ffffffffffffffffffffffffffffffffffffffffffffffffffff1916815260200160018201600c9054906101000a900473ffffffffffffffffffffffffffffffffffffffff1673ffffffffffffffffffffffffffffffffffffffff1673ffffffffffffffffffffffffffffffffffffffff1681526020016002820160009054906101000a900473ffffffffffffffffffffffffffffffffffffffff1673ffffffffffffffffffffffffffffffffffffffff1673ffffffffffffffffffffffffffffffffffffffff16815250509050919050565b6040518060a0016040528085858080601f016020809104026020016040519081016040528093929190818152602001838380828437600081840152601f19601f8201169050808301925050505050505081526020018379ffffffffffffffffffffffffffffffffffffffffffffffffffff191681526020018279ffffffffffffffffffffffffffffffffffffffffffffffffffff191681526020013373ffffffffffffffffffffffffffffffffffffffff1681526020013373ffffffffffffffffffffffffffffffffffffffff16815250600160008060009054906101000a900467ffffffffffffffff1667ffffffffffffffff1667ffffffffffffffff168152602001908152602001600020600082015181600001908051906020019061051d9291906107d5565b5060208201518160010160006101000a81548165ffffffffffff021916908360d01c021790555060408201518160010160066101000a81548165ffffffffffff021916908360d01c0217905550606082015181600101600c6101000a81548173ffffffffffffffffffffffffffffffffffffffff021916908373ffffffffffffffffffffffffffffffffffffffff16021790555060808201518160020160006101000a81548173ffffffffffffffffffffffffffffffffffffffff021916908373ffffffffffffffffffffffffffffffffffffffff16021790555090505060008054906101000a900467ffffffffffffffff1667ffffffffffffffff163373ffffffffffffffffffffffffffffffffffffffff167f2734ec159452d338ceb911cc1504199088e05d59507d1548d8ef54ddce6928b460405160405180910390a3600260003373ffffffffffffffffffffffffffffffffffffffff1673ffffffffffffffffffffffffffffffffffffffff16815260200190815260200160002060008081819054906101000a900467ffffffffffffffff16809291906106c190610d94565b91906101000a81548167ffffffffffffffff021916908367ffffffffffffffff16021790555090806001815401808255809150506001900390600052602060002090600491828204019190066008029091909190916101000a81548167ffffffffffffffff021916908367ffffffffffffffff16021790555050505050565b6040518060a0016040528060608152602001600079ffffffffffffffffffffffffffffffffffffffffffffffffffff19168152602001600079ffffffffffffffffffffffffffffffffffffffffffffffffffff19168152602001600073ffffffffffffffffffffffffffffffffffffffff168152602001600073ffffffffffffffffffffffffffffffffffffffff1681525090565b8280546107e190610d33565b90600052602060002090601f016020900481019282610803576000855561084a565b82601f1061081c57805160ff191683800117855561084a565b8280016001018555821561084a579182015b8281111561084957825182559160200191906001019061082e565b5b509050610857919061085b565b5090565b5b8082111561087457600081600090555060010161085c565b5090565b600067ffffffffffffffff82169050919050565b61089581610878565b82525050565b60006020820190506108b0600083018461088c565b92915050565b600080fd5b600080fd5b600073ffffffffffffffffffffffffffffffffffffffff82169050919050565b60006108eb826108c0565b9050919050565b6108fb816108e0565b811461090657600080fd5b50565b600081359050610918816108f2565b92915050565b600060208284031215610934576109336108b6565b5b600061094284828501610909565b91505092915050565b600081519050919050565b600082825260208201905092915050565b6000819050602082019050919050565b61098081610878565b82525050565b60006109928383610977565b60208301905092915050565b6000602082019050919050565b60006109b68261094b565b6109c08185610956565b93506109cb83610967565b8060005b838110156109fc5781516109e38882610986565b97506109ee8361099e565b9250506001810190506109cf565b5085935050505092915050565b60006020820190508181036000830152610a2381846109ab565b905092915050565b610a3481610878565b8114610a3f57600080fd5b50565b600081359050610a5181610a2b565b92915050565b600060208284031215610a6d57610a6c6108b6565b5b6000610a7b84828501610a42565b91505092915050565b600081519050919050565b600082825260208201905092915050565b60005b83811015610abe578082015181840152602081019050610aa3565b83811115610acd576000848401525b50505050565b6000601f19601f8301169050919050565b6000610aef82610a84565b610af98185610a8f565b9350610b09818560208601610aa0565b610b1281610ad3565b840191505092915050565b60007fffffffffffff000000000000000000000000000000000000000000000000000082169050919050565b610b5281610b1d565b82525050565b610b61816108e0565b82525050565b600060a0830160008301518482036000860152610b848282610ae4565b9150506020830151610b996020860182610b49565b506040830151610bac6040860182610b49565b506060830151610bbf6060860182610b58565b506080830151610bd26080860182610b58565b508091505092915050565b60006020820190508181036000830152610bf78184610b67565b905092915050565b600080fd5b600080fd5b600080fd5b60008083601f840112610c2457610c23610bff565b5b8235905067ffffffffffffffff811115610c4157610c40610c04565b5b602083019150836001820283011115610c5d57610c5c610c09565b5b9250929050565b610c6d81610b1d565b8114610c7857600080fd5b50565b600081359050610c8a81610c64565b92915050565b60008060008060608587031215610caa57610ca96108b6565b5b600085013567ffffffffffffffff811115610cc857610cc76108bb565b5b610cd487828801610c0e565b94509450506020610ce787828801610c7b565b9250506040610cf887828801610c7b565b91505092959194509250565b7f4e487b7100000000000000000000000000000000000000000000000000000000600052602260045260246000fd5b60006002820490506001821680610d4b57607f821691505b60208210811415610d5f57610d5e610d04565b5b50919050565b7f4e487b7100000000000000000000000000000000000000000000000000000000600052601160045260246000fd5b6000610d9f82610878565b915067ffffffffffffffff821415610dba57610db9610d65565b5b60018201905091905056fea26469706673582212206906e3ec3e0066faf583a937402c5f7d2113f8f4a1c27fffed716c9cdaefd08e64736f6c63430008090033",
  "devdoc": {
    "kind": "dev",
    "methods": {},
    "version": 1
  },
  "userdoc": {
    "kind": "user",
    "methods": {},
    "version": 1
  },
  "storageLayout": {
    "storage": [
      {
        "astId": 14,
        "contract": "contracts/MeinJokes.sol:MeinJokes",
        "label": "nextItemIdx",
        "offset": 0,
        "slot": "0",
        "type": "t_uint64"
      },
      {
        "astId": 19,
        "contract": "contracts/MeinJokes.sol:MeinJokes",
        "label": "itemsById",
        "offset": 0,
        "slot": "1",
        "type": "t_mapping(t_uint64,t_struct(Jeshe)12_storage)"
      },
      {
        "astId": 24,
        "contract": "contracts/MeinJokes.sol:MeinJokes",
        "label": "itemsByOwner",
        "offset": 0,
        "slot": "2",
        "type": "t_mapping(t_address,t_array(t_uint64)dyn_storage)"
      }
    ],
    "types": {
      "t_address": {
        "encoding": "inplace",
        "label": "address",
        "numberOfBytes": "20"
      },
      "t_array(t_uint64)dyn_storage": {
        "base": "t_uint64",
        "encoding": "dynamic_array",
        "label": "uint64[]",
        "numberOfBytes": "32"
      },
      "t_bytes6": {
        "encoding": "inplace",
        "label": "bytes6",
        "numberOfBytes": "6"
      },
      "t_mapping(t_address,t_array(t_uint64)dyn_storage)": {
        "encoding": "mapping",
        "key": "t_address",
        "label": "mapping(address => uint64[])",
        "numberOfBytes": "32",
        "value": "t_array(t_uint64)dyn_storage"
      },
      "t_mapping(t_uint64,t_struct(Jeshe)12_storage)": {
        "encoding": "mapping",
        "key": "t_uint64",
        "label": "mapping(uint64 => struct Jeshe)",
        "numberOfBytes": "32",
        "value": "t_struct(Jeshe)12_storage"
      },
      "t_string_storage": {
        "encoding": "bytes",
        "label": "string",
        "numberOfBytes": "32"
      },
      "t_struct(Jeshe)12_storage": {
        "encoding": "inplace",
        "label": "struct Jeshe",
        "members": [
          {
            "astId": 3,
            "contract": "contracts/MeinJokes.sol:MeinJokes",
            "label": "content",
            "offset": 0,
            "slot": "0",
            "type": "t_string_storage"
          },
          {
            "astId": 5,
            "contract": "contracts/MeinJokes.sol:MeinJokes",
            "label": "bgColor",
            "offset": 0,
            "slot": "1",
            "type": "t_bytes6"
          },
          {
            "astId": 7,
            "contract": "contracts/MeinJokes.sol:MeinJokes",
            "label": "textColor",
            "offset": 6,
            "slot": "1",
            "type": "t_bytes6"
          },
          {
            "astId": 9,
            "contract": "contracts/MeinJokes.sol:MeinJokes",
            "label": "author",
            "offset": 12,
            "slot": "1",
            "type": "t_address"
          },
          {
            "astId": 11,
            "contract": "contracts/MeinJokes.sol:MeinJokes",
            "label": "owner",
            "offset": 0,
            "slot": "2",
            "type": "t_address"
          }
        ],
        "numberOfBytes": "96"
      },
      "t_uint64": {
        "encoding": "inplace",
        "label": "uint64",
        "numberOfBytes": "8"
      }
    }
  }
}