{
  "address": "0x18b2FcFA4E996f762323483C0eC0A9536f56e69E",
  "abi": [
    {
      "anonymous": false,
      "inputs": [
        {
          "indexed": true,
          "internalType": "address",
          "name": "owner",
          "type": "address"
        },
        {
          "indexed": true,
          "internalType": "uint64",
          "name": "item_id",
          "type": "uint64"
        }
      ],
      "name": "ListedItem",
      "type": "event"
    },
    {
      "inputs": [
        {
          "internalType": "uint64",
          "name": "_itemId",
          "type": "uint64"
        }
      ],
      "name": "getItemById",
      "outputs": [
        {
          "components": [
            {
              "internalType": "bytes6",
              "name": "bgColor",
              "type": "bytes6"
            },
            {
              "internalType": "bytes6",
              "name": "textColor",
              "type": "bytes6"
            },
            {
              "internalType": "address",
              "name": "author",
              "type": "address"
            },
            {
              "internalType": "string",
              "name": "content",
              "type": "string"
            }
          ],
          "internalType": "struct Jeshe",
          "name": "",
          "type": "tuple"
        }
      ],
      "stateMutability": "view",
      "type": "function"
    },
    {
      "inputs": [
        {
          "internalType": "string",
          "name": "_content",
          "type": "string"
        },
        {
          "internalType": "bytes6",
          "name": "_bgColor",
          "type": "bytes6"
        },
        {
          "internalType": "bytes6",
          "name": "_textColor",
          "type": "bytes6"
        }
      ],
      "name": "listItem",
      "outputs": [],
      "stateMutability": "nonpayable",
      "type": "function"
    },
    {
      "inputs": [],
      "name": "totalItems",
      "outputs": [
        {
          "internalType": "uint64",
          "name": "",
          "type": "uint64"
        }
      ],
      "stateMutability": "view",
      "type": "function"
    }
  ],
  "transactionHash": "0x4c860831dc58fc389f8d5962585aea116489071dd530546fd5cb6b7aa33eb172",
  "args": [],
  "numDeployments": 3,
  "solcInputHash": "7805ec1381b6d4353f19adf39c80bbf7",
  "bytecode": "0x608060405234801561001057600080fd5b50610c11806100206000396000f3fe608060405234801561001057600080fd5b50600436106100415760003560e01c80632799276d146100465780639adf11a114610064578063e9567c7314610094575b600080fd5b61004e6100b0565b60405161005b91906106ee565b60405180910390f35b61007e6004803603810190610079919061073f565b6100cd565b60405161008b91906108e4565b60405180910390f35b6100ae60048036038101906100a99190610997565b610298565b005b60008060009054906101000a900467ffffffffffffffff16905090565b6100d56105b0565b600160008367ffffffffffffffff1667ffffffffffffffff1681526020019081526020016000206040518060800160405290816000820160009054906101000a900460d01b79ffffffffffffffffffffffffffffffffffffffffffffffffffff191679ffffffffffffffffffffffffffffffffffffffffffffffffffff191681526020016000820160069054906101000a900460d01b79ffffffffffffffffffffffffffffffffffffffffffffffffffff191679ffffffffffffffffffffffffffffffffffffffffffffffffffff1916815260200160008201600c9054906101000a900473ffffffffffffffffffffffffffffffffffffffff1673ffffffffffffffffffffffffffffffffffffffff1673ffffffffffffffffffffffffffffffffffffffff16815260200160018201805461020f90610a3a565b80601f016020809104026020016040519081016040528092919081815260200182805461023b90610a3a565b80156102885780601f1061025d57610100808354040283529160200191610288565b820191906000526020600020905b81548152906001019060200180831161026b57829003601f168201915b5050505050815250509050919050565b8383600082828080601f016020809104026020016040519081016040528093929190818152602001838380828437600081840152601f19601f8201169050808301925050505050505090506000815111610327576040517f08c379a000000000000000000000000000000000000000000000000000000000815260040161031e90610ac9565b60405180910390fd5b60de81511061036b576040517f08c379a000000000000000000000000000000000000000000000000000000000815260040161036290610b5b565b60405180910390fd5b60405180608001604052808679ffffffffffffffffffffffffffffffffffffffffffffffffffff191681526020018579ffffffffffffffffffffffffffffffffffffffffffffffffffff191681526020013373ffffffffffffffffffffffffffffffffffffffff16815260200188888080601f016020809104026020016040519081016040528093929190818152602001838380828437600081840152601f19601f82011690508083019250505050505050815250600160008060009054906101000a900467ffffffffffffffff1667ffffffffffffffff1667ffffffffffffffff16815260200190815260200160002060008201518160000160006101000a81548165ffffffffffff021916908360d01c021790555060208201518160000160066101000a81548165ffffffffffff021916908360d01c0217905550604082015181600001600c6101000a81548173ffffffffffffffffffffffffffffffffffffffff021916908373ffffffffffffffffffffffffffffffffffffffff160217905550606082015181600101908051906020019061050b929190610628565b5090505060008081819054906101000a900467ffffffffffffffff168092919061053490610baa565b91906101000a81548167ffffffffffffffff021916908367ffffffffffffffff16021790555067ffffffffffffffff163373ffffffffffffffffffffffffffffffffffffffff167f2734ec159452d338ceb911cc1504199088e05d59507d1548d8ef54ddce6928b460405160405180910390a350505050505050565b6040518060800160405280600079ffffffffffffffffffffffffffffffffffffffffffffffffffff19168152602001600079ffffffffffffffffffffffffffffffffffffffffffffffffffff19168152602001600073ffffffffffffffffffffffffffffffffffffffff168152602001606081525090565b82805461063490610a3a565b90600052602060002090601f016020900481019282610656576000855561069d565b82601f1061066f57805160ff191683800117855561069d565b8280016001018555821561069d579182015b8281111561069c578251825591602001919060010190610681565b5b5090506106aa91906106ae565b5090565b5b808211156106c75760008160009055506001016106af565b5090565b600067ffffffffffffffff82169050919050565b6106e8816106cb565b82525050565b600060208201905061070360008301846106df565b92915050565b600080fd5b600080fd5b61071c816106cb565b811461072757600080fd5b50565b60008135905061073981610713565b92915050565b60006020828403121561075557610754610709565b5b60006107638482850161072a565b91505092915050565b60007fffffffffffff000000000000000000000000000000000000000000000000000082169050919050565b6107a18161076c565b82525050565b600073ffffffffffffffffffffffffffffffffffffffff82169050919050565b60006107d2826107a7565b9050919050565b6107e2816107c7565b82525050565b600081519050919050565b600082825260208201905092915050565b60005b83811015610822578082015181840152602081019050610807565b83811115610831576000848401525b50505050565b6000601f19601f8301169050919050565b6000610853826107e8565b61085d81856107f3565b935061086d818560208601610804565b61087681610837565b840191505092915050565b60006080830160008301516108996000860182610798565b5060208301516108ac6020860182610798565b5060408301516108bf60408601826107d9565b50606083015184820360608601526108d78282610848565b9150508091505092915050565b600060208201905081810360008301526108fe8184610881565b905092915050565b600080fd5b600080fd5b600080fd5b60008083601f84011261092b5761092a610906565b5b8235905067ffffffffffffffff8111156109485761094761090b565b5b60208301915083600182028301111561096457610963610910565b5b9250929050565b6109748161076c565b811461097f57600080fd5b50565b6000813590506109918161096b565b92915050565b600080600080606085870312156109b1576109b0610709565b5b600085013567ffffffffffffffff8111156109cf576109ce61070e565b5b6109db87828801610915565b945094505060206109ee87828801610982565b92505060406109ff87828801610982565b91505092959194509250565b7f4e487b7100000000000000000000000000000000000000000000000000000000600052602260045260246000fd5b60006002820490506001821680610a5257607f821691505b60208210811415610a6657610a65610a0b565b5b50919050565b600082825260208201905092915050565b7f537472696e672063616e6e6f7420626520656d70747900000000000000000000600082015250565b6000610ab3601683610a6c565b9150610abe82610a7d565b602082019050919050565b60006020820190508181036000830152610ae281610aa6565b9050919050565b7f537472696e672e73697a652063616e6e6f742067726561746572207468616e2060008201527f3230300000000000000000000000000000000000000000000000000000000000602082015250565b6000610b45602383610a6c565b9150610b5082610ae9565b604082019050919050565b60006020820190508181036000830152610b7481610b38565b9050919050565b7f4e487b7100000000000000000000000000000000000000000000000000000000600052601160045260246000fd5b6000610bb5826106cb565b915067ffffffffffffffff821415610bd057610bcf610b7b565b5b60018201905091905056fea26469706673582212207258dfc0a293f7522d819a2525088c15a14b98b97fbf6b0585d8d69bf0d4168a64736f6c63430008090033",
  "devdoc": {
    "author": "Denny Portillo",
    "events": {
      "ListedItem(address,uint64)": {
        "details": "This indexed owner-item_id is usefull along with getItemsById fn"
      }
    },
    "kind": "dev",
    "methods": {
      "listItem(string,bytes6,bytes6)": {
        "details": "Emits #ListedItem",
        "params": {
          "_bgColor": "The background of your post. Just as facebook/instagram stories :p",
          "_content": "The message you want to store",
          "_textColor": "Set a custom font-color for your post"
        }
      }
    },
    "title": "A Simple yet useful starter contract :)",
    "version": 1
  },
  "userdoc": {
    "events": {
      "ListedItem(address,uint64)": {
        "notice": "Log items by listed by owner along with it's item_id"
      }
    },
    "kind": "user",
    "methods": {
      "getItemById(uint64)": {
        "notice": "Get information about an item by providing it's id"
      },
      "listItem(string,bytes6,bytes6)": {
        "notice": "List/Create a Jeshejojo"
      }
    },
    "notice": "This implementation is used as a learning tool. Do not use in real-apps",
    "version": 1
  },
  "storageLayout": {
    "storage": [
      {
        "astId": 13,
        "contract": "contracts/MeinJokes.sol:MeinJokes",
        "label": "nextItemIdx",
        "offset": 0,
        "slot": "0",
        "type": "t_uint64"
      },
      {
        "astId": 18,
        "contract": "contracts/MeinJokes.sol:MeinJokes",
        "label": "itemsById",
        "offset": 0,
        "slot": "1",
        "type": "t_mapping(t_uint64,t_struct(Jeshe)10_storage)"
      }
    ],
    "types": {
      "t_address": {
        "encoding": "inplace",
        "label": "address",
        "numberOfBytes": "20"
      },
      "t_bytes6": {
        "encoding": "inplace",
        "label": "bytes6",
        "numberOfBytes": "6"
      },
      "t_mapping(t_uint64,t_struct(Jeshe)10_storage)": {
        "encoding": "mapping",
        "key": "t_uint64",
        "label": "mapping(uint64 => struct Jeshe)",
        "numberOfBytes": "32",
        "value": "t_struct(Jeshe)10_storage"
      },
      "t_string_storage": {
        "encoding": "bytes",
        "label": "string",
        "numberOfBytes": "32"
      },
      "t_struct(Jeshe)10_storage": {
        "encoding": "inplace",
        "label": "struct Jeshe",
        "members": [
          {
            "astId": 3,
            "contract": "contracts/MeinJokes.sol:MeinJokes",
            "label": "bgColor",
            "offset": 0,
            "slot": "0",
            "type": "t_bytes6"
          },
          {
            "astId": 5,
            "contract": "contracts/MeinJokes.sol:MeinJokes",
            "label": "textColor",
            "offset": 6,
            "slot": "0",
            "type": "t_bytes6"
          },
          {
            "astId": 7,
            "contract": "contracts/MeinJokes.sol:MeinJokes",
            "label": "author",
            "offset": 12,
            "slot": "0",
            "type": "t_address"
          },
          {
            "astId": 9,
            "contract": "contracts/MeinJokes.sol:MeinJokes",
            "label": "content",
            "offset": 0,
            "slot": "1",
            "type": "t_string_storage"
          }
        ],
        "numberOfBytes": "64"
      },
      "t_uint64": {
        "encoding": "inplace",
        "label": "uint64",
        "numberOfBytes": "8"
      }
    }
  }
}